:020000041000EA
:1000000000B5324B212058609868022188439860DF
:10001000D860186158612E4B002199600421596104
:100020000121F02299502B49196001219960352056
:1000300000F044F80222904214D00621196600F024
:1000400034F8196E01211966002018661A6600F04E
:100050002CF8196E196E196E052000F02FF8012189
:100060000842F9D1002199601B49196000215960AB
:100070001A491B48016001219960EB211966A021F2
:10008000196600F012F800219960164914480160C1
:100090000121996001BC002800D000471248134993
:1000A000086003C880F30888084703B5996A0420EC
:1000B0000142FBD001200142F8D103BD02B5186610
:1000C0001866FFF7F2FF186E186E02BD00000240BE
:1000D000000000180000070000035F00212200005C
:1000E000F4000018222000A00001001008ED00E03C
:1000F000000000000000000000000000070B8FD58A
:10010000000404209D020010F54B00109F02001017
:100110009F0200109F0200109F0200109F0200101B
:100120009F0200109F0200109F0200109F0200100B
:100130009F0200109F0200109F0200109F020010FB
:10014000714E0010954E0010B94E0010E14E001097
:100150009F020010094F00109F0200107D680010E0
:100160009F0200109F0200109F0200109F020010CB
:100170009F0200109F0200109F020010554C0010BB
:10018000754C00109F0200109F0200109F0200108B
:10019000A94D00109F0200109F0200109F02001046
:1001A0009F0200109F0200109F0200109F0200108B
:1001B0009F0200109F0200109F0200109F0200107B
:1001C00072B6254880F30888244880F30988022005
:1001D00080F31488BFF36F8F21482249086003F031
:1001E000AEF803F0CBF8204820491B4A914202DACE
:1001F00008600431FAE71E49184A914202DA0860A1
:100200000431FAE71B491C4A1C4B9A4204DA08687D
:10021000106004310432F8E700201949194A91426C
:1002200002DA08600431FAE703F0AAF803F08EF866
:10023000154C164DAC4203DA216888470434F9E7BF
:1002400005F010FA124C134DAC4203DA21688847CE
:100250000434F9E71049084700040420000C042086
:100260000001001008ED00E0555555550000042030
:10027000000404207C8200100000002018040020EC
:100280001804002018200020C0010010C001001038
:10029000C0010010C00100107F33001090E700F093
:1002A00000F8FEE7F0B544464D4656465F46F0B4CA
:1002B0006B46CB60C3689D46F0BCA046A946B246DB
:1002C000BB46F0BD04F0F4FC62B6281CA047002039
:1002D00003F006F9FEE703F07DF8024A024B1360D3
:1002E000FEE7C04604ED00E00000008002B4714665
:1002F00049084900095C49008E4402BC7047C04669
:10030000844608006146FFE71FB507F0E0F80028C3
:1003100001D40021C8421FBD10B507F063F8404268
:10032000013010BD10B507F0D2F8002801DB002025
:1003300010BD012010BDC04610B507F0C8F8002858
:1003400001DD002010BD012010BDC04610B507F032
:1003500070F8002801DC002010BD012010BDC0464F
:1003600010B507F066F8002801DA002010BD012062
:1003700010BDC0461C2101231B04984201D3000C70
:1003800010391B0A984201D3000A08391B09984208
:1003900001D30009043902A2105C40187047C0461E
:1003A000040302020101010100000000000000003E
:1003B00002B4714649084900095649008E4402BCFE
:1003C0007047C04603B47146490840004900095EC1
:1003D00049008E4403BC704703B47146490840008D
:1003E0004900095A49008E4403BC70474142084005
:1003F0001C2101231B04984201D3000C10391B0A55
:10040000984201D3000A08391B09984201D3000918
:10041000043902A2105C401A7047C0461B1C1D1D07
:100420001E1E1E1E1F1F1F1F1F1F1F1F002B11D14F
:10043000002A0FD1002900D1002802D00021C94391
:10044000080007B4024802A14018029003BDC0464C
:100450002D03000003B4684601B5029807F087F841
:10046000019B9E4602B00CBC7047C046D0400B00BA
:10047000D1409C46203AD3401843524263469340B1
:10048000184370479140030090409C46203A9340A7
:10049000194352426346D3401943704710B50029AF
:1004A00003D1FFF767FF203002E00800FFF762FF8B
:1004B00010BDC046F0B5C64600B50F2A41D9032786
:1004C0000D003E0005430C0003002E402F423DD19D
:1004D0001500103D2D09A8462D01AC46844427681F
:1004E0001D001F6067685F60A7689F60E768103441
:1004F000DF6010336545F2D145460F230C240135EA
:100500002D01491913404519144222D08C59AC5180
:1005100004369C1B032CF9D8043B9B0801339B0039
:10052000ED18C91803231A40561E002A06D00023CE
:10053000CC5C1A00EC5401339642F9D180BCB84629
:10054000F0BD0500561E002AF1D1F7E70500561E42
:10055000EDE71A00F6E7C046F0B50500830749D07D
:10056000541E002A45D003000326CAB202E001351A
:10057000013C3ED301332A703342F8D1032C30D9E9
:10058000FF220A40150215432A0415430F2C34D9C3
:100590002700103F3F093E01B4461E001A001036E6
:1005A0006644156055609560D5601032B242F8D14E
:1005B00001373F01DB190F270C22274022403C0066
:1005C000002A0ED03E1FB608B400A4461A001C1D17
:1005D000644420C2A242FCD103240136B6009B1918
:1005E0003C40002C05D0C9B21C19197001339C4243
:1005F000FBD1F0BD03001400C0E72700E2E7C046CE
:1006000030B5032A0CD903000B439B0719D10368AB
:100610000C68A34215D1043A04300431032AF6D8F9
:10062000551E002A0BD0002303E05A1C9D4206D021
:100630001300C25CCC5CA242F7D0101B00E000208B
:1006400030BD551EEFE7C046002934D001230022FB
:1006500010B488422CD301242407A14204D2814241
:1006600002D209011B01F8E7E400A14204D2814251
:1006700002D249005B00F8E7884201D3401A1A43CE
:100680004C08A04202D3001B5C0822438C08A04205
:1006900002D3001B9C082243CC08A04202D3001BBB
:1006A000DC082243002803D01B0901D00909E3E735
:1006B000100010BC704701B5002000F05FF802BDCB
:1006C0000029F8D003B5FFF7C1FF0EBC4243891AD9
:1006D0001847C046002941D010B404004C40A4463D
:1006E00001230022002900D54942002800D54042BC
:1006F00088422CD301242407A14204D2814202D291
:1007000009011B01F8E7E400A14204D2814202D2B0
:1007100049005B00F8E7884201D3401A1A434C08AD
:10072000A04202D3001B5C0822438C08A04202D3E3
:10073000001B9C082243CC08A04202D3001BDC080B
:100740002243002803D01B0901D00909E3E7100068
:100750006446002C00D5404210BC704701B5002013
:1007600000F00CF802BDC0460029F7D003B5FFF732
:10077000B3FF0EBC4243891A1847C0467047C046B3
:1007800073B5020401AB1880120E072A1ED8187820
:100790000B281BD80C2353431B1803200126DA080F
:1007A00092B250430A4A35008018072213409D40F8
:1007B0000022EDB20B00D340845C33405B426340C7
:1007C0002B405C4084540132032AF3D173BDC046F0
:1007D000D81A002037B5020401AB1880120E002091
:1007E000072A18D819780B2915D80C235343072248
:1007F00003245B18012501001A40DB089BB25C430F
:10080000054BE418635CD3402B408B400131184307
:10081000C0B20329F6D13EBDD81A00200721054BEE
:10082000054A1B7812789A4200D1704701330B4079
:10083000F9E7C046101B00200F1B002010B5114B1C
:100840001B78002B10D0104B1B787F2B0CD9C208C3
:10085000EF2808D80D4B01219B1807220240914038
:100860009A788A439A7010BD00231900074A947839
:10087000844200D191700133DBB20132062BF6D1F4
:10088000F1E7C0460C0400200C1B0020B805002036
:10089000024A1378834313707047C046071B002039
:1008A000034B1A78002A01D000221A707047C04604
:1008B000081B002030B5042427490A78224205D0BD
:1008C00018230340082B27D198432043130708D54A
:1008D0001824050014232540A54225D1A843C0B201
:1008E000184301244978214206D018230340082BDD
:1008F00021D19843C0B22043890708D518210400AC
:1009000011230C408C421FD1A043C0B21843D20621
:1009100001D5E723184030BD14230340042BD5D163
:10092000984304331843D1E70340142BD9D198439B
:10093000C0B22043D5E711230340012BDCD19843FB
:10094000C0B207331843D7E70340112BDFD19843D8
:10095000C0B20843DBE7C0460C1B002070B50400A2
:10096000E72800D987E0DF280FD8312800D176E0CA
:1009700014D8292869D02A2800D176E0012837D058
:10098000231F9BB2A02B2DD832E0E03807282FD8A8
:10099000FFF7ACFC1D2E2A30402E474C39280CD0D6
:1009A00082280AD035284BD0A72800D97BE0A4287C
:1009B000E6D98023243CDB0172E0824B1A7892074F
:1009C00000D0F9E05B781B0712D5292410E0012242
:1009D0007C490B78134240D14978114208D0E32476
:1009E000DB0605D5002403E0764B1B785A07F6D4C6
:1009F000201C70BD734A1378590700D5DAE052788D
:100A0000D20700D5D8E0102213405A4253415B422E
:100A10001C40EDE76B4B5A789207E9D51B78E72429
:100A2000DEE7684B1B781A07F9D4E1E7654A1378CB
:100A3000190700D5C2E052789207E4D5E424D7E73D
:100A4000604B1B789B06D3D5BFE75E4B1A789206A6
:100A500000D5B5E05B781B07CAD53924C8E7594BE8
:100A60001B785B06C4D52A24C2E7564B1B785B066D
:100A7000BED53124BCE7A423DB01984232D2013B2E
:100A8000FF3B984276D2013BFF3B984219D30322A9
:100A9000C4B2A3081440023AA2405B014A4C13437B
:100AA0001C43A4B2A4E70300A83B9BB2162B99D821
:100AB0005834464BE4B26400E35A8824E4011C43F2
:100AC00096E78022D20190424FD2FF2802D8EF2829
:100AD000E6D887E7F822431EFF3B9BB252019342C0
:100AE0009B4195E7AC23DB01984219D2013BFF3BC8
:100AF000C0B29C424BD2013BFF3B9C4203D3344CDF
:100B00000002044374E7A623DB019C4236D2032291
:100B100083081040023A82405B012E4C1343BFE72A
:100B2000B423DB0198420CD2013BFF3B984237D201
:100B3000294BC3189BB2FF2B00D953E7274C030264
:100B4000AEE78025264BAD01C3189BB2AB4200D364
:100B500048E7C004C00EFFF7ADFEF82300025B01BA
:100B60001840E4B204432C4342E7A0241D4B240266
:100B70000340A4E7C4B21C4B2402A0E7032283086D
:100B80001040023A82405B01184C134388E7FFF79C
:100B900091FEF823802400025B011840A401B0E715
:100BA0000F252840FFF786FE24092C402402104B15
:100BB000044375E7E2241BE7E02419E7E62417E77E
:100BC000352415E70C1B0020008DFFFF80810010ED
:100BD000F4A00000008CFFFF00A8FFFFF0A0FFFFC3
:100BE00000A0FFFFFF0F0000F1A00000008AFFFF40
:100BF0000090FFFF002070470020704772B6D021A0
:100C0000BE22090652008B58002BFCD0BFF35F8F29
:100C10007047BFF35F8FD023BE221B0652009B504C
:100C200062B6704710B50400FFF7E8FF0123D02239
:100C3000A34012069362064AE3009B1805225A60FD
:100C4000044BA400E4184A236360FFF7E2FF10BDE1
:100C50000040014000C00140FEE7000010B50D4B10
:100C600014201B78DA0712D400189A070FD4283002
:100C70005B070CD4084B48381B78002B07D0483052
:100C80001D2B04D81E215843FFF724FD80B2C0B2AB
:100C900010BDC046FC1A0020FE1A002010B5012429
:100CA000104B02211B78234215D104220B4210D194
:100CB000134214D10C4B187800280ED027280ED8D8
:100CC000C0002631FFF706FD02002000002A01D0F7
:100CD00092B2D0B210BD0A00FBE72200F9E7082269
:100CE000F7E7C046FC1A0020FD1A00200300F03888
:100CF00010B50F280ED8FFF7F9FA080E1218303089
:100D00003030301C21262C3A4044FFF7A7FF1F4B00
:100D10004042D87010BDFFF7A1FF1C4BF9E7FFF769
:100D20009DFF1A4B40429870F4E7FFF797FF174B6F
:100D3000F9E7FFF7B3FF154B1871EBE7FFF7AEFFCD
:100D4000124B4042F8E7FFF7A9FF104B40425871A1
:100D5000E0E7FFF7A3FF0D4BF9E70122F43B9A40D0
:100D60000A4913000A0049780B435370D2E7012364
:100D7000074A11780B431370CCE7054A0223117818
:100D8000F8E7034A04231178F4E7C046FF1A00206D
:100D9000FC1A002030B50421052202240325324B21
:100DA00059569A561C575D57F02814D1002D01DA78
:100DB0000022DA70D9789A780A4351B2002A01D118
:100DC0002A4A11701A795B7913435AB2002B01D168
:100DD000274B1A7030BDF12802D1002DE8DCE9E77D
:100DE000F22804D1002CE5DA00229A70E2E7F32819
:100DF00002D1002CF8DCDDE7F92804D10029D9DD87
:100E000000221A71D6E7FA2802D10029D2DAF7E7D0
:100E1000FB2804D1002ACDDA00225A71CAE7FC2847
:100E200002D1002AF8DCC5E7F4380B28C2D8FFF756
:100E3000BFFA0606060606C1C1C1C10C1216012181
:100E400081405A788A435A70B4E7012009490A78E8
:100E500082430A70AEE7074902200A78F8E705499D
:100E600004200A78F4E7C046FF1A0020FE1A00208A
:100E7000FD1A0020FC1A0020044A054B0220D15C18
:100E8000002901D10138D0547047C0462408002001
:100E900004100000044A054B0220D15C002902D056
:100EA00000210138D15470472408002004100000AC
:100EB00010B55200054C1218091A035BDB430B52A4
:100EC00002309042F9D1012010BDC04600E01F1051
:100ED000064B10B51A88824206D01880044B1B6856
:100EE000002B01D0DB68984710BDC0462E070020BC
:100EF000B41A0020064B10B51A88824206D018801A
:100F0000044B1B68002B01D01B69984710BDC046DD
:100F10002C070020B41A002070B5144B1B78002B4E
:100F200010D0134B1B787F2B0BD9CA08EF2907D899
:100F300007231940063B8B40821891780B4393702E
:100F400070BD00230122851C5242EC5CA142F7D007
:100F5000561C02D1002C00D15AB20133062BF4D119
:100F6000531CEDD082189170EAE7C0460C040020B3
:100F70000C1B002070B5FFF741FE144B144D1548B3
:100F80009C6A01682B68144AE41AA14208D9134EDE
:100F90001168A419124E9B192B60124BC9181160CD
:100FA00015680460FFF735FEFA2200232000920046
:100FB000002106F04BFB00230B4A80185941002307
:100FC0000A4AFFF733FA281870BDC04600400540B2
:100FD0004C190020481900204419002080C20E003E
:100FE000803DF1FF708541003F420F0040420F00FD
:100FF00010B5FFF7BFFF83B20A488278C1780A4371
:1010000001D0094A1380027941790A4301D0074A85
:101010001380074B1B68002B03D002229B680270D1
:10102000984710BDFF1A0020921900209019002047
:10103000B41A002009021143002210B51B4C08B25B
:101040006260090A032915D008D801290DD01000C3
:10105000022908D1164B5B22636009E010002129A8
:1010600012D022291AD0226010BD1222114B6360C7
:101070002000F8E7C3B21000022BF4D80E4A990002
:1010800088580E4AD25C05E0022BECD80C4A9B0033
:101090009858092260600028EAD1E4E7022BE2D8E0
:1010A000084A99008858084AECE7C04624070020FF
:1010B000147A00106F7A0010A07A00109C7A001049
:1010C000907A0010847A0010817A0010DA30084A91
:1010D00001781378022907D1012B01D0062B02D108
:1010E000044B52781A707047024A1370FBE7C046EF
:1010F000200700201D07002070470000014B1878D2
:101100007047C0461D0700207047704770470000B9
:1011100072B6D02109060B68054A9B00D3185B689C
:10112000986502235B424B6505331370FEE7C046AA
:1011300014080020034A916A936A5B1A9842FBD80C
:101140007047C04600400540D0231B061A68034B79
:1011500092009B185B68D8687047C046140800204E
:10116000030010B51B68984203D09C688A689442BB
:10117000F8D25A680B604A601160596010BDC368AC
:10118000C269013BC360436910B59B188269436122
:10119000934201D3436A436100238362036B002BB4
:1011A00000D0984710BD036910B51960C268013AB4
:1011B000C260C2699B1882690361934201D3436A8A
:1011C000036100238362036B002B00D0984710BD9E
:1011D000002070470300020010B5D6331B78DE32C2
:1011E00013707F221340064A0400136043681B6893
:1011F000002B01D0012198470323237010BDC04666
:1012000000001150034B1A6882431A609A6810421A
:10121000FCD0704700C000407F220138C317134044
:101220001B18DB110133DB0102329BB2FF3210B518
:1012300093420ED0FF2480220749D200240259187D
:101240001000214204D0181C934200D9101C80B217
:1012500010BD80208000FBE780FDFFFF70B50029F6
:101260002FD11D4BDC6C01228B1C9B00C0184668E3
:10127000B069037D82745A4002750568728AAA4279
:1012800000D92A005E1EB3418026F6001643B6B28E
:1012900040685B033343114E12183340954202D825
:1012A0008022D20113430E4A144080229205144337
:1012B00000290BD1084AD4640A4AC90089184B6036
:1012C00070BD094ACB009B185C68CCE70648CA0091
:1012D00012185460F0E7C04600001150FF7FFFFF76
:1012E000FFFFFFAF800010500000105070B50400E9
:1012F000012006008E400D00618931436181A91CE7
:101300008900611849688E69B2600022336072609A
:10131000F260934205D0498A013B5818FFF794F9CF
:1013200080B2308229002000FFF798FF70BD0000D6
:10133000F0B58B1C9B00C3185F6885B00C1E7E69DE
:10134000BD69009010D14023414AB383B261B1829C
:10135000B175698229758021AA61AB833D4A3E4BF4
:101360008905D15005B0F0BD002E3BD03B4BCA00E3
:10137000D31803933A4B4020D2180023D367B37598
:101380003A68B38201920293012A13D1388AFFF797
:1013900043FF802202239200904209D08022013331
:1013A000D200904204D0431EFF3B5A4253419BB2AD
:1013B000DB060293009AE2329446634611884200AB
:1013C0008A181A80274BB083CA18019B8131B261F9
:1013D000FF319A060A43802109061143039A029BB2
:1013E00002C2D367002DBDD01C4BE400E6181E4B93
:1013F0004020E4180023E3672B753C686B82012CC6
:1014000012D1388AFFF708FF80220223920090420F
:1014100009D080220133D200904204D0431EFF3B0A
:101420005A4253419BB2DB06009AA406E23211886D
:10143000471817800B4AA8838A18AA618022813135
:10144000FF310C431206224372600836F36789E7C6
:1014500000011050000011504C20000000001050FE
:1014600004001050800110500800105010B50029E1
:1014700003D102240A4A0B4BD4500B4ACB009B18D1
:101480008022DC6F12012243DA67012202318900D7
:10149000401843689B69DA7400221A7510BDC04673
:1014A00000001150682000000800105010B50029FD
:1014B00003D101240A4A0B4BD4500B4ACB009B1892
:1014C0008022DC6F12012243DA6701220231890097
:1014D000401843685B695A7500229A7510BDC04672
:1014E00000001150682000000400105070B5150075
:1014F000040008001D49FFF7A7F82B048025AD0163
:101500001D432368002B0FDA3F2223681340012B71
:101510000AD1A3681B051B0D984205D1EE22E36892
:10152000D20213409D421CD0114B9C421AD0802302
:101530005B01104A10491360104A13601E008A684C
:101540009643FBD101232360C023221D9B0113433B
:101550002122A0601A602268002AFCDA0822E560D5
:101560001A6070BD80239B01E3E7C046001BB700F3
:1015700000C0024000E0004000C0004000F0004019
:1015800010B50E4C0E4B20000021E360FFF7D0FE9B
:1015900000230C4AE2341360012223800A49D00060
:1015A0000A4C4018D1000C198360E367C3600848F7
:1015B00001320918CB670F2AF0D110BDCC190020D9
:1015C0003879001000001150F8FF0F50040010503F
:1015D00008001050F0B5104B85B01B7816000A2794
:1015E00002900391092B00D9093F01250399029824
:1015F000B04700280ED10135AF420BDB2B000400B1
:101600006B4301930A20FFF795FD019B01349C4237
:10161000F8D1EBE705B0F0BDE805002070B5040097
:1016200003003125FF20083408211A78504046B2C3
:101630004200D0B2002E01DA6A40D0B2013900294E
:10164000F5D10133A342EFD170BD000010B5EFF327
:10165000108372B6044C236006F022F8236883F3EB
:101660001088012010BDC046B00700201423188840
:1016700004331B88034910B59847030080200021DC
:101680008004984755420000F0B50F000500110096
:1016900085B01A008B425CD80C240B0E02930B020F
:1016A0000193019800230299FEF7C0FE6C432A4B78
:1016B0000600E41863680391834200D260602B1F28
:1016C000DBB20093C023009A9B012343012A18D860
:1016D000012F16D103221A60A3683B42FCD0E023FD
:1016E00022681A4080235B0123431A600321226889
:1016F0007A400A401A600123BB40A2681342FCD022
:1017000017E0802212011A60144BAA00D158002958
:1017100005D05869FEF798FF01300138FDD1E0236C
:1017200022681A4080235B0123431A60009A012A31
:10173000DCD9802380229B01234312011A60019887
:1017400066603200039B0299FEF770FE034CAD0009
:10175000605105B0F0BDC04600800040B4070020D5
:101760008322274B920010B5DA620022AA21254B72
:1017700009019A67244A254811602F21D160244924
:10178000086051680029FCDA0121224A11605A6C74
:10179000012AFCD10321204A11609C6B012CFCD151
:1017A00006221E491E48FFF7A1FE05221D491E48BC
:1017B000FFF79CFE1D4B02211A000420FFF764FF77
:1017C0001B4B21001A000520FFF75EFF194B00217B
:1017D0001A000720FFF758FF164B00211A000820B7
:1017E000FFF752FF00210920134B124AFFF74CFF6D
:1017F0000F4B00211A000620FFF746FF10BDC04620
:1018000000800540008000400040024000B0FA0027
:10181000006002403CB0004030B00040002F6859EA
:101820000080024000389C1C00C00240001BB70032
:1018300040597307006CDC021BB70000C26F030045
:10184000106810B50178042914D1197A022911D130
:10185000517901228A40448922420BD1DA691C6AFB
:10186000A24202D19C69002C04D19B6A0432043B41
:10187000FFF73CFD10BD10B5406BFFF7DFFF10BD5B
:1018800010B50F24054A11784B1C2340044C2478D2
:101890009C4202D0034C1370605410BD7919002093
:1018A000781900206819002070B5244B244A1B7851
:1018B0001278244C1343244A23701278002A1BD038
:1018C00013432370214B1A780523002A04D0204AA1
:1018D00012787F2A00D9183300221E490878002880
:1018E00001D00132D2B2013BDBB20131FF2BF5D185
:1018F000002A01D0FEF7D4FF174D20222900200036
:10190000FEF77EFE002817D0202221002800FEF7D7
:10191000D1FD124B1B68002B0ED00C4A1278002A06
:1019200007D00B4A12787F2A03D9227862700622E8
:10193000227020005B68984770BDC046071B0020DE
:101940000E1B0020B8050020081B00200C040020FE
:101950000C1B0020BA050020B81A0020B41A002081
:1019600010B5002807D0031FDBB2A02B04D8FEF768
:1019700065FFFFF799FF10BD03002033DBB2072B93
:1019800007D80723034001209840C0B2FEF780FF2C
:10199000EFE703005B33DBB2022B03D80020FFF735
:1019A00097FAE8E703005833DBB2162B03D8002080
:1019B000FFF7A0FADFE7EF28DDD9FFF7EBF9FFF734
:1019C00017FBD8E710B5041E29D0031FDBB2A02BEC
:1019D00026D8284B1B78002B14D0274B1A780023CD
:1019E0007F2A0FD9254BC2089B180722997801231B
:1019F000024093400B420CD02000FEF71FFFFFF780
:101A000053FF06E01E4AD15CA142F5D00133062BFC
:101A1000F9D121001948FFF77FFAFFF745FF10BD04
:101A200003002033DBB2072B08D807210123014034
:101A30008B40144A11780B431370EEE703005B33BD
:101A4000DBB2022B04D8243CA0B2FFF741FAE6E750
:101A500003005833DBB2162B05D80B4A5B00985AAB
:101A6000FFF748FADBE7EF28D9D9FFF73FF9FFF78F
:101A7000BFFAD4E70C0400200C1B0020B80500209E
:101A8000BA050020071B00208081001010B5002837
:101A900005D0034B1A7810431870FFF705FF10BDEF
:101AA000071B002010B5002803D0FEF7F1FEFFF75A
:101AB000FBFE10BD10B500240020FFF709FA00203E
:101AC000FFF718FA084B1C70FFF7EEFE0622210004
:101AD0000648FEF741FD064B1C70064B1C70064B7A
:101AE0001C70FFF785FA10BD0E1B0020FF1A0020A6
:101AF000FE1A0020FD1A0020FC1A002010B507492C
:101B000006220B78082418001A40A043062A01D1A7
:101B1000200018430870FFF7CDFF10BD0A1B0020FE
:101B20000121814010B5034B1A780A431A70FFF760
:101B3000C1FF10BD0A1B00200121814010B5034BDD
:101B40001A788A431A70FFF7B5FF10BD0A1B0020F0
:101B5000002370B50B4CE3561A00824350B20500C7
:101B600007222070154010420BD1DBB2834208D00F
:101B7000054B5B785B0704D5C010C0B2FFF7DCFFF4
:101B8000257070BD0B1B00200C1B0020F7B5170043
:101B9000012202318900401843685C69227521687E
:101BA00022691B8A8E1A9E4200D91E00002318004B
:101BB00092198A425841226182030092A17DB5B2F6
:101BC0000A00501E82415203019201224A40A0693C
:101BD000A2759F4200D0A38BC0183200A168FEF707
:101BE00069FC8420A36800029B19A360019B284321
:101BF0001843009B1843002F00D00004FEBD0000D6
:101C0000F7B58B1C9B00C3185B680C1E5F691A4EEE
:101C1000019023D1194BDB6C002221000198009325
:101C2000FFF7B4FF3A683B6905009A4205D00122EC
:101C300021000198FFF7AAFF05436B0111D5104A57
:101C4000009B13401A00A023DB051343002C0FD187
:101C50000A4AD3641034E4003551F7BDCB00F35881
:101C6000DAE7084A009B13401A0080239B05ECE743
:101C7000E200B350EEE7C0460000105000001150E3
:101C8000FFFFFFDFFFFFFFAF70B501258D40048927
:101C90002C4304818C1CA4000419646864692360CB
:101CA0000023A2606360E3602361FFF7A9FF70BDBA
:101CB000436B10B5DA6F10680178042912D1197AD4
:101CC00002290FD1117901228A400489224209D1C7
:101CD0009A6D5C6D944202D11B6D002B02D108CA33
:101CE000FFF7D2FF10BD70B50600C436040030788F
:101CF000002842D00638C3B20F2B34D80F2832D870
:101D0000FEF7F4FA3B3131082532313131313131CE
:101D100031313B3B2300CC339A7B18680E335B7820
:101D20001B021343984212D2E368198AFEF7C8FCDB
:101D30000D1E0CD1FEF762FF2B002A0029002000A7
:101D4000FFF7A2FFFEF765FF0A2333700BE01423B1
:101D50003370FEF753FF002320001A001900FFF72D
:101D6000C5FAFEF756FF70BD2300D0331B68002B69
:101D700001D0200098470023E7E700212000FFF76B
:101D800095FB00212000FFF771FB63681B68002BA7
:101D900002D00621200098470623D6E770B505003B
:101DA000C4352B780400142B29D019D8062B06D063
:101DB00002D8002B03D070BD093B022BFBD80021B9
:101DC0002000FFF773FB00212000FFF74FFB636843
:101DD0001B68002B02D006212000984706231AE03A
:101DE000152BE8D10A3B2B70FEF708FF00232000DB
:101DF0001A001900FFF748FFFEF70BFFDBE7C36887
:101E00009B695B68002BD6D10300D0331B68002B85
:101E100000D0984700232B70CDE700000300080096
:101E2000802110B59C1849018C4203D802495918E9
:101E3000FEF740FB10BDC0462408002007B5002374
:101E40006A46D3716B460122D91DFFF7E7FF6B4647
:101E5000D8790EBD10B50420FFF7F0FF0400222052
:101E6000FFF7ECFF0002204380B210BD10B5232025
:101E7000FFF7E4FF232801D0002010BD2420FFF746
:101E8000DDFF0228F8D12330FFF7D8FF193843428D
:101E90005841F2E710B52620FFF7D0FF10BD030030
:101EA00070B50020032B16D8072914D80B2A12D896
:101EB00018244C435200A418C0225343E4182000B5
:101EC0002730FFF7BBFF050220002830FFF7B6FFE1
:101ED000ADB2284380B270BD07B501AA00231180BE
:101EE000032808D85178072905D812780B2A02D878
:101EF000FFF7D5FF030018000EBD0000F0B5072462
:101F00000127104A104B12781B7885B001AE1A4396
:101F100030800092009B23413B4205D1013CF9D225
:101F20000025280005B0F0BD328803AB1A80E5B269
:101F300003992800FFF7D0FFFEF710FD80B20128BB
:101F4000ECD0EEE70A1B0020091B00201FB501ACF6
:101F500020800198FFF7D2FF228803AB1A800399F3
:101F6000FFF7BAFFFEF7FAFC04B010BD13B504008A
:101F7000010006226846FEF79DFAA388002B2DD0AB
:101F80006B461A88164B9A4228D02088FFF7DEFF4E
:101F9000C2B20004030F062B18D00F21062B0ED857
:101FA0000E3300200B40012B08D80120F02A05D069
:101FB00007D80020E72393424041C0B216BD063344
:101FC000EFE7F43A100043425841F6E70120E72AD0
:101FD000F4D9F13A53425A41D0B2EFE70020EDE78D
:101FE000FFFF000013B501AB1880019800290DD048
:101FF000002A0BD0FFF782FF040001000198FEF7D2
:10200000BFFB20000199FFF767FF16BDFEF7E2FB5B
:102010000400F6E7F0B5002087B0019104F058FB0A
:10202000264B041E009308D1002408220099019831
:10203000FEF740FA200007B0F0BD214D214E2A796D
:10204000E988531E9A4102AB8919D81DFEF732FA6E
:102050001D4B1F68FEF78EFFC01B632807D81B4F60
:102060003800FFF7DBFA02ABDB79834220D0012096
:1020700004F02EFB0028D7D02B7C1A1C082B00D98B
:102080000822698AD2B2711804A8FEF713FA0F4821
:10209000FFF7C4FA02ABDB798342C5D1FEF76AFFD2
:1020A000094B18600822009804A9FEF703FABCE760
:1020B0000822390004A8FEF7FDF9F3E7C019002053
:1020C000E8030020B0190020C8190020B219002030
:1020D00070B58025044C6D012A0000212000FEF718
:1020E0003BFA024B635170BD240800200810000029
:1020F00010B5FEF7C1FE041E02D1FEF7CBFE10BDE7
:10210000FFF7A4FAFFF7E4FF012CF8D1F5E7000090
:1021100010B5074B02301B78002B04D0054B1E2254
:102120001B787F2B00D806220021FEF715FA10BD80
:102130000C0400200C1B0020002210B5034B0448A7
:102140001A70FFF7E5FFFFF7B5FC10BD071B002075
:10215000B805002070B5FEF751FD284A284E106ED4
:1021600001680B78042B45D13300E8331B78022B30
:1021700040D10479013BA340098919423AD1916BBE
:10218000D36B994236D1516B002933D0116D0029A0
:1021900030D00439CC1A99422CD01C60516B146C8D
:1021A00001395163516C59189163A14201D3D16C2B
:1021B000916332000024FC32916B14658B4202D192
:1021C000526BA24201D11C0020CC037E002B09D00F
:1021D00002690021521B6019FEF7BEF93300FC337F
:1021E0001B6E1D69FC36306E2B00017922000068E1
:1021F000FFF74AFDFEF70DFD70BDC04684030020C9
:10220000880200208B1C9B0070B5C3180500506924
:102210000E0014005A60002803D020220021FEF78F
:102220009BF9A069002803D020220021FEF794F931
:1022300031002800FFF77CF870BD0000F0B58DB0CC
:10224000FFF704FA0024A04266D0FEF715FE0990BD
:10225000EFF3108372B68022FF20314D12012B6004
:10226000304B40031900089305F012FA2B6883F3F2
:10227000108880252C482D496D01089B0F001B5D9F
:10228000122243401E001B020793002330000693D6
:10229000002305F0DBF9F30E7A011A437301019272
:1022A0000093009A019B8018594180197941730E5F
:1022B000FA011A43F30103920293029A039B8018D6
:1022C0005941330E3A021A43330205920493049A99
:1022D000059B80185941069A079B01348018594183
:1022E000AC42CAD10A900B91EFF3108372B60C4C3A
:1022F00004220F480AA9236005F0CAF9236883F372
:102300001088099B012B01D1FEF7C4FD8023022414
:10231000084A08995B01CA5020000DB0F0BDC046C4
:10232000B00700202408002025232284E49CF2CB5F
:1023300000F01F000810000080218022054B490199
:102340005B58012010B59201934201D3FFF776FF4D
:1023500010BDC0462408002073B580246A460C4D89
:102360006401911D2B590880EFF3108272B6094E5B
:102370003260FF2252039818012205F089F9336870
:1023800083F310882B5902332B51FFF7D5FF76BD0D
:1023900024080020B00700208023F0B51500821823
:1023A00004000E0085B05B019A4214D8444F2A0005
:1023B000C71939003000FEF723F900280BD02A0096
:1023C00031003800FEF776F8FEF756FD0190002840
:1023D00003D1FEF75FFD05B0F0BD012D27D0E30767
:1023E00025D48023DB019C4231D2707833780002FF
:1023F000184301281BD8434258411F2340429843A9
:102400006038630A18436308DBB21B02C0B218438A
:10241000FFF7A2FF012806D1023D02340236002D4B
:10242000DBD1FFF789FF019B012BD4D1D1E73F2CF2
:102430000DD84020337820431B02C0B21843FFF769
:102440008BFF0128EFD1013D01340136E7E72F0072
:10245000052D00D90527002200230292039307329D
:10246000230C1340FA00134302AA1370230A53707B
:1024700013009470D81C3A003100FEF71BF802AB31
:102480001888FFF769FF0128CDD102AB5888FFF704
:1024900063FF0128C7D1012D0DD002AB9888FFF74B
:1024A0005BFF0128BFD1032D05D902ABD888FFF708
:1024B00053FF0128B7D1ED1BE419F619AFE7C04669
:1024C0002408002073B56B469C1D00230E0023805A
:1024D000022221000500FFF7A1FC23889E4205D0BF
:1024E0000222210028002680FFF756FF73BD37B572
:1024F0000D000400FFF7A2FCA84206D06B460122A3
:10250000D91D20000D70FFF747FF37BD0C4910B5EE
:102510004A785307DB0F834211D001230340042084
:102520009B0082431A434A700C88E1B2FFF7DFFF39
:102530002220210AFFF7DBFF0220FFF709FB10BD75
:102540000C1B002010B500280CD023210800FFF739
:10255000CEFF02212420FFF7CAFF19212520FFF713
:10256000C6FF10BDFF212320FFF7C1FFFF2124205C
:10257000FFF7BDFFFF21F1E770B51D00032814D858
:10258000072912D80B2A10D81824C0234C434343E0
:102590005200A418E4182000290A2730FFF7A7FFEB
:1025A0002000E9B22830FFF7A2FF70BDF8B5002582
:1025B000C0246C430B4B0027E4180DE07300F2B20B
:1025C000E35AF9B2E8B20136FFF7D6FF0C2EF5D187
:1025D00001371834082F01D00026EFE70135042D0C
:1025E000E6D1F8BDAC7A001070B58025044C6D01C1
:1025F000200000210134FFF77AFFAC42F8D170BD12
:102600002703000010B50020FFF79CFF00212620C3
:10261000FFF76DFFFFF7CAFFFFF7E6FF0120FFF7A7
:1026200091FF10BD37B50025042201A904000195D2
:10263000FFF7F4FB019BAB4205D00422200001A967
:102640000195FFF7A9FE37BD10B50024FFF750FD37
:1026500000202249FFF736FF00210220FFF747FF45
:1026600000210320FFF743FF1D4B210004201C70B5
:10267000FFF73DFF04212220FFF739FF210005204D
:10268000FFF735FF21000620FFF731FFFF2107206C
:10269000FFF72DFF0820FFF7C5FF21000D20FFF7F2
:1026A00026FF1820FFF7BEFF21001720FFF71FFFAE
:1026B0001C20FFF7B7FF21002020FFF703FF1820A1
:1026C000FFF7B0FF2000FFF73DFFFFF79BFF0F2054
:1026D000FFF7A8FF1320FFF7A5FF10BDE8FE0000DD
:1026E000091B002010B503689C68A2420CD85C68E6
:1026F0008A600B604C602160596099688A1A9A6000
:1027000001235B42836010BD1B68121BECE70000D5
:10271000F0B5142900D21421D02614220D4C0E4DF0
:102720003606336847189B00E3185B689B6A0433DE
:102730009B005F51AB6A181A814203D80132110025
:102740001800EEE7142A03D90123E2681343E3607B
:10275000F0BDC046140800200040054070B5D025EB
:102760002D062B681B4A9B00D3185B6819698842A9
:102770000CD00268416884680A6051609168091948
:10278000916000220260013A9A6170BD19000468EC
:1027900010311C616160002404601E690E4CB1425E
:1027A0000AD12968A36B890052185268916A0122E4
:1027B0008A409343A363E8E78168B268DB695218F3
:1027C000B260A06AC11A8A42DFD9191A8918FFF7C4
:1027D0009FFFDAE7140800200040054070B5046848
:1027E000C2608B6048600C6061600160142B00D295
:1027F0001423D02109060968144C8900611849681E
:10280000D5188E6A1249301D800045500120B04015
:1028100048638D6B284314258863886A801A834235
:102820000CD8D020000600680135800020184068D0
:102830005619806A043080000E50EEE7142D03D93B
:102840000123E2681343E36070BDC0461408002012
:102850000040054070B5130004000E4A00680D00EA
:10286000926A844203D12000FFF7B8FF70BDE1688F
:10287000511A5E188E4200D21E008168B14203D9FF
:1028800019001000FFF744FF320029002000FFF775
:1028900029FFEBE70040054070B50D4C05002368AB
:1028A0000E00002B02D02000FFF758FFD0231B069C
:1028B0001A68084B92009B185868074B2A00E3607F
:1028C00000232100103026616361FFF7C3FF70BD54
:1028D0002C190020140800208D2A001070B5050066
:1028E000D435297804000B007F200340212B00D031
:1028F00080E022004BB2D532002B28DA1378022B6D
:102900001ED0032B12D0012B00D073E02300D8334C
:102910001A78002A5FD15249103B19602023210008
:102920000120CC31D0340B60226070BD2300D8333D
:102930001A88002A5ED14B49103B19600123EEE74B
:102940002300494AC8331A6001230022E7E71378BD
:102950000A2B45D00B2B0DD0092B4BD12300D8339C
:102960001A7802239A4345D122004049C8321160A7
:102970003F4AD4E72300D8331B88002B2BD12300F8
:10298000D6331D783B492B005A1E9341354ADBB2A2
:1029900013700A78DB01024013430B70002D1AD12B
:1029A000314E3378002B16D0FEF728F90023324A37
:1029B0002900307804F04AFE0023304A801859413B
:1029C000FA2200239200FDF731FD21008000FFF77D
:1029D00063FFFEF71EF922000023C8321360B4E73C
:1029E0002300244AD7331B781F4E15783370ED0926
:1029F000F1D1D7E7224B2A889A4220D12300D8333D
:102A00001A785B7821001B02134322006068D632DB
:102A1000D7314568127820000978A84700281DD0D2
:102A200023004268C8331A6003688EE7222BD2D095
:102A300014E02300134AC8331A60072385E7124BBA
:102A40001B78002B0AD060230B40202B06D12300DB
:102A5000D5331B78212BE9D81F2BEAD8002064E757
:102A6000FD0600200C040020FC06002020070020AA
:102A7000CD1000100C1B002040420F00E7030000A7
:102A800081060000600200204A03002070B50C009F
:102A9000FEF7B4F82378042B02D0FEF7BAF870BD25
:102AA000144B1B78DB09F8D1134D2B78002BF4D095
:102AB000124B1B78002BF0D023899B0705D40823E9
:102AC000012120000E4AFFF7DFF8002328780D4A85
:102AD000002104F0BBFD00230B4A80185941FA2263
:102AE00000239200FDF7A2FC21008000FFF7D4FE36
:102AF000D3E7C0460C1B0020FC0600200C0400207D
:102B0000FD06002040420F00E7030000D0231B0613
:102B10001B68F7B52F4A9B00D3185D6801922E0001
:102B200010362C692C4FEB69B86AA268C11A8A4228
:102B300047D89B18EB6162680093236813605A6062
:102B4000002323602B699E420CD1D0231B061B68F7
:102B500001999B00CB1801215B68BA6B9B6A994075
:102B60008A43BA63FEF755F82000E3682169984765
:102B7000FEF744F86269002AD3D0B96A009B28693D
:102B8000CF1ABA4210D2134B0093DB689C46022343
:102B900062461343009AD360864210D03A00210067
:102BA0003000FFF79FFDBCE78642F8D1009B521A28
:102BB000D3180A0030002100FFF710FEF7BD0023F4
:102BC000F7E7A642FAD0191A8918E861A160FFF761
:102BD0009FFDF3E7140800200040054000238268B1
:102BE000037503691B6899689142FBD25A680360B8
:102BF000426010605860704710B50C00FDF7FEFF92
:102C0000207D052807D8FDF771FB0C060603130F7E
:102C10000022A3691A6001235B422000A361FFF731
:102C2000DDFFFDF7F6FF10BDA269936801339360E5
:102C30006268236813605A60EDE70000D022120634
:102C40001168084B89005B185B68016910B59942EF
:102C500005D0136D9B0702D501235B425365FFF737
:102C6000BDFF10BD1408002070B505000E000468FB
:102C7000AC4200D170BDE3683343E3602369334263
:102C80000AD06068A368C2691343027DC3610A2A3F
:102C900004D182691A4207D12468E9E70B2AFBD1E3
:102CA000826913409A42F7D100238361FFF7C6FF80
:102CB000F2E70B0011339B00C318F7B55C68050001
:102CC0000E00002C17D0FDF799FF0821201DFFF7FB
:102CD000CBFFB31C9B00EB185F68A26D7B691B6880
:102CE0000193002B08D1636D934223D1236D002BF8
:102CF00020D0FDF78EFFF7BD2100236D4431013355
:102D00002365236ED218E36DA2659A4201D3A36EA8
:102D1000A365606C814206D0036863645960002338
:102D20008361FFF78BFFA26D636D934202D1236D28
:102D3000002B05D108CA31002800FEF7A5FFD8E70F
:102D40003B8A019A013B1A42D3D1E36F1B7E002BD1
:102D5000CFD12A00D432EEE72131890010B50C58CA
:102D6000002C2CD0FDF74AFF0421201DFFF77CFF2B
:102D70002100E36F0C311A685B7902339B00D31892
:102D80005B689B695A68E3691A60A2690132A261B3
:102D9000A26A9B18626AE361934201D3236BE361E9
:102DA000E068814206D00368E360596000238361D4
:102DB000FFF744FF2000FEF741FDFDF72AFF10BD9D
:102DC00070B5022504006D422068844200D170BDB8
:102DD000036823605C608561FFF730FFF4E7000063
:102DE00070B504000800052970D8FDF77FFA586F08
:102DF00003585870FDF702FF012120003C4AFFF7FD
:102E000001FA042120003B4AFFF7FCF93A4B3B4E04
:102E1000197820003A4AFFF7F5F93300C1331978E1
:102E20002000384AFFF7EEF93300C2331978002941
:102E300003D02000344AFFF7E5F9330034000025C1
:102E4000FC34F8331D606369304863602360A5611A
:102E5000E561FFF7B5FF3300F4331D70A36C2C4818
:102E60006363E36C2565E363A3636565FFF7A8FF10
:102E7000962301215B002748F554FFF7F5FE26480D
:102E8000FEF7DCFCFDF7C5FE244B1B78AB4202D0FD
:102E90000520FEF7F5FC0220FEF7F2FC16E0012506
:102EA000FEF7EEFCFDF7AAFE02211A48FFF7DCFE52
:102EB0001B4B1648114C1D70FFF782FF96231448D8
:102EC0005B00E554FFF77CFFFDF7A3FE70BDFDF747
:102ED00095FE10480121FFF7C7FE0021104A074B5D
:102EE0001170962252009954FDF793FE0520D3E706
:102EF000F8790010DC7900104803002088020020D7
:102F0000F00200200C03002028030020740300209E
:102F1000AC0300206C030020680300207A19002015
:102F20007C030020D0231B061A68084B92009B18D4
:102F30005B6810B5D9680875186802681A60536034
:102F400001220275D860FDF7ADF910BD140800200C
:102F500030B50400D0200A000006036812499B0027
:102F6000CB185B6887B0DD68531C18D003680495E4
:102F70009B00C9180D4B4868039300236946103025
:102F80000593FFF767FC2000FFF7CCFF009B002BA9
:102F900002D06846FFF7E2FBA86907B030BD200009
:102FA000FFF7C0FFF8E7C04614080020F92B001017
:102FB00010B50400FDF722FE21000820FFF7C8FF2E
:102FC000FDF727FE10BD000010B5FFF7B5F8064865
:102FD000FFF7EEFFBFF34F8F044B054ADA60BFF3F4
:102FE0004F8FC046FDE7C04690D0030000ED00E0E3
:102FF0000400FA0570B505005024392800D00024DB
:103000002800FA26FEF7DEFCB600002C03D12800CB
:10301000FEF7A6FC70BD3000013CFFF7C9FFA4B26B
:10302000F3E70000F7B51E000C001500234B002845
:103030000CD01970FDF79EFF214B1880072301204B
:1030400023409840C0B2FEF721FDF7BD1F788F42A4
:103050002ED11B4B1B880193FDF78CFF019BC01ADF
:1030600080B2C72824D8AF420AD13000FFF7C2FF90
:10307000072301201D40A840C0B2FEF713FDE4E77E
:103080003B0001270724380023409840C0B2FEF7D8
:1030900009FD2B002033DBB2A34205D82C40A7400A
:1030A000F8B2FEF7F3FCE0E73000FFF7A3FFCCE750
:1030B000072301201C40A040DEE7C046051B00207E
:1030C000E605002070B504000D00E368002B07D072
:1030D000236900201A1DA262E2699B18E36211E0D5
:1030E000237A002B0FD1FEF72FF8002D0ED0636846
:1030F000046043602900186060600420FFF728FF27
:103100000028E2DA70BD02204042FBE70120FBE725
:1031100070B504000E001500FDF770FDA36A002BCA
:1031200009D129002000FFF7CDFF051E03D0FDF7D0
:1031300070FD280070BDA36A1E70A36AE26A0133A5
:10314000A362934204D3E16920000439FEF72BF80F
:10315000FDF75FFD0025ECE7012210B54430524237
:10316000FFF7D6FF10BD10B54430FFF7D1FF10BDFB
:10317000F7B504000E00009201930027FDF73EFD15
:10318000A36A002B09D120000199FFF79BFF0028BB
:1031900003D0FDF73EFD3800FEBDA06AE56A009B46
:1031A0002D1ADB1B9D4200D91D00402D18D931007E
:1031B0004022FDF77FF9A36A403640334037E26A88
:1031C000A3629A4204D8E16920000439FDF7EBFFBD
:1031D000FDF71FFD009B9F42DDD2FDF70FFDCFE7FE
:1031E00031002A00FDF766F9A36A76195B197F1989
:1031F000E5E7012310B544305B42FFF7B9FF10BD8E
:1032000010B54430FFF7B4FF10BD70B504000D00D9
:10321000E368002B07D062690020131D1268A362C7
:103220009B18E36211E0237A002B0FD1FDF78CFF8E
:10323000002D0ED063680460436029001860606050
:103240000420FFF785FE0028E2DA70BD022040422C
:10325000FBE70120FBE770B504000D00FDF7CEFC95
:10326000A36A002B09D129002000FFF7CEFF051E1D
:1032700003D0FDF7CEFC280070BDA36AE26A1D787A
:103280000133A3629342F4D32000FDF778FFF0E707
:10329000012110B50C304942FFF7DDFF10BD10B51C
:1032A0000C30FFF7D8FF10BDF7B504000E000092F8
:1032B00001930027FDF7A2FCA36A002B09D120008F
:1032C0000199FFF7A2FF002803D0FDF7A2FC380008
:1032D000FEBDA16AE56A009B6D1ADB1B9D4200D909
:1032E0001D00402D16D930004022FDF7E3F8A36AF7
:1032F000403640334037E26AA3629A4202D8200047
:10330000FDF73DFFFDF785FC009B9F42DFD2FDF7F7
:1033100075FCD1E730002A00FDF7CCF8A36A7619D6
:103320005B197F19E7E7012310B50C305B42FFF70B
:10333000BBFF10BD10B50C30FFF7B6FF10BD7047D6
:10334000014B8000C0587047B407002070B5FEF7ED
:1033500007FA074C074B226800259A4205D0064819
:103360002360FDF7E7FE256070BD2560FEF77EF95E
:1033700018200020BAB0FECA20A107007047FEE75F
:1033800070B5124C626820681100A3688B4219D88E
:10339000D11E00208B4203D303339B1A9B08980055
:1033A0001018E368C11E0022994203D803331A1A89
:1033B000920892000021FDF7CFF8054B10349C4293
:1033C000E0D170BD20C820C1E0E7C0465C790010A4
:1033D000DC790010D0231B061A680E4B92009B1854
:1033E0005B6810B51868D96802681A6053600122DA
:1033F0000275D86000238A680B750B691B689C688E
:103400009442FBD85A680B604A6011605960FCF71F
:1034100049FF10BD14080020D0231B061A68074B73
:1034200092009B185B6810B51A68DB6892689B680D
:103430009A4201D9FFF7CEFF10BDC0461408002004
:10344000F8B50E000400283EA41915001F00FDF772
:10345000D5FB2300D020069A243BE3605A611E4A24
:103460001F611A62000602681C4B92009A1802261D
:1034700057680022A682A5606562E2610168276143
:10348000B1405B185B682262D9689C46A2619F428A
:103490000CD0036D334202D001235B424365200010
:1034A000FFF79CFBFDF7B5FB2000F8BD886885425F
:1034B000F5D90B690A751B689A689042FBD35A6864
:1034C0000B604A6011605960012323756346200038
:1034D000DC60FCF7E7FEE5E7C502001014080020F9
:1034E00010B50400FDF78AFBFDF72EFE84610F2066
:1034F000FFF718FD10BD70B50C000500FDF724FEA8
:10350000002C06D02860210085610320FFF720FDF4
:1035100070BD01204042FBE770B50500FDF76EFB72
:103520001C4C2378042B20D11B4A238912787F2A34
:103530001ED91A4A1278002A1AD0DB060BD420238F
:103540002A0004212000FEF79FFB202229001448B6
:10355000FCF7B0FF09E00121E369494258690C30EA
:10356000FFF7C9FF2378042BE9D0FDF752FB70BDAC
:103570009B0703D408232A000121E3E701212369E3
:10358000494258690C30FFF7B6FF2378042BECD181
:10359000F0E7C046CC1900200C1B00200C040020D2
:1035A000FD06002070B50500FDF728FB0C4C2378C4
:1035B000042B02D0FDF72DFB70BD2389DB0607D558
:1035C000E369084958690C30FFF795FF0130F1D0E5
:1035D00006232A0004212000FEF756FBEAE7C04636
:1035E000CC1900201027000070B506000C00FDF774
:1035F00005FB0E4D2B78042B02D0FDF70AFB70BDA6
:103600002B89DB0607D5EB69094958690C30FFF7B0
:1036100072FF0130F1D0074A032354700421240AB9
:10362000280016709470FEF72FFBE6E7CC190020F7
:1036300010270000F906002010B501000320FFF755
:10364000D3FF10BD10B501000420FFF7CDFF10BD62
:10365000F8B505000E000024FDF7D0FA1027EB693D
:103660009B693B4206D0280031001030FFF743FF32
:10367000041EF4DAFDF7CDFA2000F8BDF0B507001E
:103680000E00002585B001920393019B9D4202D359
:10369000280005B0F0BD38000399FFF7D9FF0028D6
:1036A000F6DB019B00245B1B0293FDF7A7FA1021B8
:1036B000FB699A690A4208D09A6B40310A439A63BF
:1036C000FDF7A7FA2D193619DFE7029AA242F7D0C3
:1036D0001B6833550134EAE7012310B55B42FFF75D
:1036E000CDFF10BD10B5FFF7C9FF10BD012110B50A
:1036F00049420400FFF7ACFF002809D1E3691868CC
:103700009A69D20603D55022996B0A439A63C0B2D4
:1037100010BD10B50400FFF79BFF00280AD1E36934
:1037200018689A69D20603D55022996B0A439A63A6
:10373000C0B210BD02204042FBE7F8B505000E0004
:103740000024FDF75BFA2027EB699B693B4206D01A
:10375000280031001430FFF7CEFE041EF4DAFDF726
:1037600058FA2000F8BDF0B507000E00002585B01E
:1037700001920393019B9D4202D3280005B0F0BD46
:1037800038000399FFF7D9FF0028F6DB0024019BDE
:103790005B1B0293FDF732FAFB6920219A690A420A
:1037A00007D09A6B0A439A63FDF733FA2D1936193D
:1037B000E0E7029AA242F7D0325D01341A60ECE7EA
:1037C000012310B55B42FFF7CEFF10BD10B5FFF728
:1037D000CAFF10BD70B50C00012149420500FFF77A
:1037E000ACFF002808D12022EB691C6099691142C6
:1037F00002D0996B0A439A6370BD70B50C0011003A
:103800000500FFF79AFF002809D12022EB691C6010
:103810009969114202D0996B0A439A6370BD0220E4
:103820004042FBE70300006810B5002804D00022E6
:103830001A608161FFF702FA10BD0000F0B50600C2
:10384000C4363378040085B0002B01D000233370D8
:103850002300D43318000822C0490193FCF72AFE44
:1038600063689B68002B19D1019B1A7860231500AF
:103870001D401A4238D000212000FDF717FE00211C
:103880002000FDF7F3FD63681B68002B02D00621C2
:10389000200098470623337005B0F0BD20009847FC
:1038A0000028E1D023002700DA331A785B78CC3780
:1038B0001B0213433A689A4200D93B60019B3D6862
:1038C0001B787F2B00D886E1002D00D176E10923FB
:1038D0003370FDF793F922000021C8323B6812686B
:1038E0002000FEF7D1F973E123007F21D5331B7847
:1038F0000A401B0213439A4A934200D146E128D85A
:103900008022520093425CD00FD8012B51D0022B61
:1039100000D1D9E0002BAED122002100C832DC3129
:103920001160022151609360BCE7812252009342F2
:1039300000D1EDE0FF32FF3293429CD12300D63319
:103940001B78012B97D12200DC32118801330B4305
:1039500042E08022120193424CD022D8A022D20011
:10396000934240D07F4A9B18012B00D983E7230064
:10397000D8331A785B7821001B0213432200606859
:10398000D632D7314768127820000978B847002826
:1039900000D170E723004268C8331A6002685A6099
:1039A0001FE09022120193422BD06F4A934200D025
:1039B00061E76E4A2300C8331A6002225A6000226F
:1039C00016E02300D6331B78012B00D053E72200EA
:1039D0000221DC3213888B4313802300C8331D601F
:1039E0005D609D605EE72300614AC8331D605D60D5
:1039F0009A6057E723002200C833DF321A600122A1
:103A0000CDE72378042B48D1FDF7F8F8A368594A8D
:103A10001340A360230010331D0002933C33039333
:103A20002F68002F0FD07869002804D002210C30B5
:103A30004942FFF7F7FEB869002804D002210C3094
:103A40004942FFF7EFFE0023039A08C59542E7D1EC
:103A50001D0002999A0088584049426995759582DF
:103A6000DA00521891680133490049089160816970
:103A70000D754D82D16849004908D1600F2BE8D1FE
:103A8000FDF7C7F823000321DF331D706368217041
:103A90001B68002B01D0200098472300D6331B78E9
:103AA000002B0BD02200DF321370042323706368D5
:103AB0001B68002B02D0022120009847220000231F
:103AC000C832136053602EE72300D8331A780F23CF
:103AD000134002339B00E31852B25968002A0EDAF1
:103AE0004B69002B00D1C6E61A7D002A05D15B7D0B
:103AF000214A002B00D1BEE65CE7204A5AE78B69D9
:103B0000002B00D1B7E69A7C002AF6D1DB7CEFE7E8
:103B10002300D6331A78002A00D0ACE698780F211B
:103B200003000B400842C9D0991C8900611840B2BB
:103B30004968134DDB00002807DA12481B18D86FBC
:103B40002840D8674B695A75B8E70F481B18D86FDB
:103B50002840D8678B69DA74B0E7C046000010507F
:103B60000203000000FAFFFF020C00005879001069
:103B7000D511001001000100567900105479001091
:103B8000FFF7FFFF04001050080010502300D63349
:103B90001B78002B00D06EE62300D8331B780F2251
:103BA00019001140134289D05BB22000002B02DAC9
:103BB000FDF77CFC82E7FDF759FC7FE714233370A7
:103BC000FDF71CF82B002A0000212000FDF78EFBDA
:103BD000FDF71FF860E6002D08D015233370FDF7C0
:103BE0000DF82200C8323B681268EDE70B233370F2
:103BF000FDF704F82B002A00290071E6F8B5FCF760
:103C0000FDFF174C2378022B07D10022154B012111
:103C10001A60C123144A9B01D150002501230226BA
:103C2000656023707642E768002F0DD07869002820
:103C300003D031000C30FFF7F5FDB869002803D040
:103C400031000C30FFF7EEFD00230135E360043452
:103C5000102DE8D1FFF7E0FBFCF7DBFFF8BDC04615
:103C6000CC190020900011500000115070B50E4D7D
:103C70002B78002B0FD1C8240C4B1B78042B10D0B1
:103C8000013C0B48A4B2FFF793F9002CF4D10223B6
:103C90002B70FFF7B3FF2878013843425841C0B278
:103CA00070BD01232B70F6E7B01A0020CC1900205C
:103CB0001027000037B5164C2568FDF75BF9401B4F
:103CC000012563281CD9FFF7D1FF00281AD0FDF782
:103CD00051F9104B02300190588B0F4A1B7E80180F
:103CE0001A1C042B00D90422D2B201A9FCF7E2FB72
:103CF000022002F0EDFC051E02D0FDF73BF920602A
:103D000028003EBDFDF736F9044B1B681818E0E7A4
:103D1000AC190020E8030020B0190020A8190020E9
:103D200010B5FFF7A3FF002805D0034B1B68181E32
:103D300001D01B68984710BDB41A0020F0B589B0B7
:103D400001000090062206A8FCF7B4FB009B9B88AC
:103D5000002B4BD004AB1A89B94B9A4246D0009B3A
:103D6000012299781888FEF73DF9009B04009E789F
:103D7000002E01D100F077FCB24BC3189BB20F2B81
:103D800001D900F0B7FCB048FEF758F800281ED162
:103D90008025123CAD4FE4B26D01002C28D1069471
:103DA0003800FEF74BF8002306AC7D1C20706370D2
:103DB00098420CD0431E022B25D80123607023703B
:103DC0002800FEF73BF80237A07000281CD1A04B5A
:103DD0001B785B070AD0009B9B78002B06D09D4B7D
:103DE0005B785B0702D50220FDF7B2FE09B0F0BD9B
:103DF000AF42ECD03800FEF721F801370028F7D1A8
:103E0000013CE4B2C9E72F002678002EC8D0012E6D
:103E100031D16378A078012B03D10234FFF7EAF89F
:103E200004E0022B04D10234FDF7CCFD0134EBE7B2
:103E3000032B03D10234FDF793FDF7E7042B01D0E8
:103E40000134F3E7844A002594460A260234624688
:103E5000125C611C1A4208D1FA26B600002DE5D08A
:103E60003000FFF7A5F8013DF8E7754330384519F4
:103E700060780C00EBE7794A0121935DF208019329
:103E800007231E40764B01209B5C33411940029171
:103E900074498D5C744935418A5C05400392034244
:103EA0000FD00223714A11780B431370FDF7FCFC0D
:103EB000002D12D10198FFF79DF8E120FDF750FD8C
:103EC00004E0002D09D10198FFF794F8039B01222B
:103ED00033411342AAD02C20A0E74023634A117833
:103EE0000B431370FDF7E0FC0198FFF783F8E62021
:103EF000FDF736FD029B002BDFD1E7E70120FDF740
:103F00000FFEFDF7FBFD62E70120FDF715FEF8E768
:103F10000220F4E70220F8E7554BE018032821D8E7
:103F2000FCF7E4F90C1014182623E12211003000EC
:103F3000FFF778F84BE72723E522F7E72623E1226E
:103F4000E021F4E72723E522E421F0E72623E1221C
:103F5000E221ECE72723E522E621E8E728230122F6
:103F6000E521E4E7002E00D15EE10022414B1A700A
:103F7000414B9C421BD1FDF76DFF0122354B188050
:103F800034480378D906C90F8A43102112018B43A4
:103F9000134303702F4B04201C88E1B2FEF7A7FAED
:103FA0002220210AFEF7A3FAFEF7C6F80FE79C428B
:103FB00000D87AE3314B9C4205D0314BE3189BB2D9
:103FC000022B00D9C5E3FDF745FF224B18802D4B8E
:103FD000E0180A28DED81F4BFCF7F4F9B600DCFF26
:103FE000DCFFDCFFDCFFDCFFDCFFDCFF100062003D
:103FF000C00001232A7813432B70CBE7082259789D
:104000000A4350E002232A78F5E704232A78F2E7EE
:1040100008232A78EFE701225978F1E7022259783C
:10402000EEE710232A78E6E720232A78E3E7402307
:104030002A78E0E7FEF780F880232A785B42DAE707
:10404000FFFF0000EEA0FFFFFF0F000027030000AE
:104050000B1B00200C1B0020B1760010CE8100103D
:10406000BE810010AE810010AE810010071B002041
:104070000DA3FFFF051B0020615D0000A55D000092
:1040800053A2FFFF5BA2FFFF0C232A789A43B2E7FB
:10409000032259789143B3E701222B789343ABE78E
:1040A00008215A788A435A7074E702222B78F5E780
:1040B00004222B78F2E708222B78EFE701215A78C7
:1040C000F0E702215A78EDE710222B78E6E720226C
:1040D0002B78E3E740222B78E0E7FEF72DF87F22EC
:1040E0002B78134088E70C222B78D7E703215A78E6
:1040F000D8E7012204202B785907C90F8A43910081
:1041000083430B430821D2008B4374E70120040052
:104110005A78D107C90F8C430221824322436000A1
:104120008A430243BFE7FEF707F801222B78D9093B
:104130004A407F21D2010B405DE701210E20FEF7AE
:10414000D6F927E70021F9E7012004001A78D10702
:10415000C90F8C43824322431A701BE701215A780E
:104160001007C00F81430820C900824348E7002E92
:1041700000D08FE0009A009B12889B7805AD2A80C2
:104180000598002B00D1A1E0FDF7B8FE0400010066
:104190000598FCF7F5FA2B8804AA138120000699EC
:1041A000FDF79AFEFCF7DAFB0022009B041C9F79C6
:1041B0009D78B14B3F0902931B7801925B0720D099
:1041C000019595421DD023041B0E0F329343402BC3
:1041D00006D0230000222033DBB20192072B10D936
:1041E0000022A64B01925B785B070AD50220FDF7FF
:1041F000AFFC0722029B1B7813405A425341DBB2AB
:1042000001932304180F0B2800D9C1E0FCF7E4F850
:10421000620062009700970015012801C000C000ED
:104220005001B201C501C501954B9C42A2D1954BED
:1042300029201B78002B00D00C30FCF7FFFA14E08B
:104240008F4B9C4214D1904B1B78002EEFD05522FF
:1042500093431900481E81418A4A11702921002B7D
:1042600000D00C318948FCF757FEFDF71DFBAEE589
:10427000002E00D17EE7864B9C4225D016D8854B78
:104280009C421ED0844B01209C4200D072E7FEF776
:104290003DF96FE7B823DB019C4200D06AE7FDF7E8
:1042A0004BFF7E48FEF784FEFDF7E0F97C4B9C4215
:1042B00000D05FE7714B587801234007C00F58408A
:1042C000E5E7FEF7C1F94BE20020E0E7FCF782FAF0
:1042D000040060E726052304360F1B0E0F2B00D9C0
:1042E0003601E4B2002D13D0002E0DD02300203370
:1042F000DBB2072B02D96B4A002C00D1624A13783B
:1043000033431370FDF7D0FA2000FDF75BFB3FE06D
:104310002000FDF725FB002E3AD023002033DBB22E
:10432000072B01D9002C03D13000FCF7B1FA03E0D0
:104330005C4A1378B3431370FDF7B6FA28E00F22F6
:10434000230426051B0E360F9343202B00D0360185
:10435000E4B2002C0ED0012C5AD0002D61D0002FD9
:104360005AD0009B9B79DA07CED50F221340009AD2
:10437000937151E0414B5B785A072BD4002D05D047
:10438000002E05D0404A13783343D4E7002ECBD11A
:10439000019B002B17D00020029B1856012302001E
:1043A0001A4018420FD1009BC0109A70C0B2FDF79E
:1043B000B7FB0098FFF7C2FC0020029B1856C01004
:1043C000C0B2FDF7B9FB009B002299781888FDF771
:1043D00009FE0BE5002D10D03000334A1178084358
:1043E000002F02D1FDF752FBD2E7012FFAD15B0774
:1043F000CED58142CCD01070CAE7002F05D1FCF792
:104400004FFA3000FDF74EFBC2E7012FC0D0F6E7B0
:10441000002D03D0052FBBD83000E3E7042FB7D819
:10442000EFE7002FEDD00120392C00D11F48FEF717
:10443000BFFD2000FDF794FAAAE723059B0F08D0E3
:10444000012BA5D1281E01D0A005800DFCF752FD3F
:104450009EE7281E01D0A005800DFCF739FD97E7E7
:10446000E0B2002D04D0FCF741FCFCF7C1FD8FE762
:10447000FCF790FCF9E7C0460B1B00200C1B00204A
:10448000165C0000061B0020071B0020B80500205A
:104490005B5D0000DE5C00005A5D000090D0030010
:1044A0005C5D00000E1B0020081B0020803801000E
:1044B00023049B019B0F28D1002D2DD11020220613
:1044C000520F92002307D2B21B0F93400100DBB2C0
:1044D0002140204203D00F219140C943C9B2240595
:1044E000A04AA40F022C0CD0032C08D0012C04D01D
:1044F000194313780B40137031E0107803430B43DA
:10450000F9E70B4311784B40F5E7A3059B0FDAB2AF
:10451000002D04D0DB0704D4FFF702FC38E7012AA2
:10452000FAD910202106490F89002307C9B21B0FB1
:104530008B400200DBB22240204203D00F228A408F
:10454000D243D2B224058849A40F022C0ED0032CEA
:104550000AD0012C06D01A430B7813400B70FDF7DC
:10456000A9FAD9E7087803431343F7E713430A7816
:104570005340F3E7E6B22405240F002D06D02000B7
:10458000FDF7CEFA3000FDF781FAC5E73000FDF700
:1045900089FA2000FDF7D0FABEE7E6B23000F03825
:1045A000042846D8FBF7A2FE032510172100002D92
:1045B00007D0042FB0D80123E404E40EA3406A4AD4
:1045C000A0E7052FA8D8F6E7E004C00E002DE1D142
:1045D000FDF7A6FAA0E7644A002D04D00123E40405
:1045E000E40EA34087E71570B9E7604E73785B0768
:1045F00004D4E004C00E002DCCD0E9E7002D0ED08D
:10460000E404E40E2000FDF78BFA73785B0704D511
:104610000323E2001343029A13702000D8E701201D
:10462000FDF796FA012F00D876E70220FDF790FA01
:1046300072E7002D08D0002F03D03000FDF7C2F93B
:104640006AE7E004C00EC3E7002F09D00120392E2D
:1046500000D14748FEF7ACFC3000FDF781F95BE77D
:10466000E004C00E96E7434B984200D14CE4424B25
:10467000984200D14EE4414B984200D97AE5404B34
:104680009C4200D948E43F4B9C4200D153E43E4B4E
:104690009C4200D162E43D4B9C4200D144E4002E98
:1046A00000D1C1E500223A4B1A703A4B9C4237D8F0
:1046B000394B9C4200D85AE5FDF7CCFB2B4D374BCC
:1046C0002880E018122800D993E4FBF77BFE9BFCBE
:1046D0009EFCA1FCAAFCADFCB0FCB3FCDDFCE5FC3F
:1046E000EEFCF1FCF4FCFDFC00FD03FD06FD0CFD01
:1046F0002CFD12FD1F4B984201D1FFF7FFFB1E4B13
:10470000984201D1FFF704FC1C4B9C42B7D9002210
:104710001F4B1A70224B9C4200D12CE400D949E473
:10472000204BE518ABB2082B00D989E5FDF792FBC9
:104730000E4B1880082D00D92CE42800FBF742FE10
:104740006BFC6EFCBEFCC1FCA8FCD6FCE6FCFDFCD0
:1047500002FD002E00D10DE5134B9C4200D009E56F
:10476000FEF732FC091B00200A1B00200C1B002056
:1047700080380100105F0000115F0000F65C00004F
:10478000F25C0000D85C0000D95C0000D75C00003F
:10479000051B0020155C0000015C0000FDA3FFFF6D
:1047A000615D000006A3FFFFA75D0000F0B5244B8C
:1047B00085B09A790F2A3DD89A78002A3AD0214AB2
:1047C0001478214A127801925A789E8817001B7833
:1047D0000093019B9C422DD0194D0622290002A86E
:1047E000FBF768FE002E27D002AB1A88174B9A42BF
:1047F00022D0174AE10053185878B8421CD18A5C7D
:1048000000998A4218D19A78002A15D19A88921B69
:1048100092B2C72A10D80F201021AA7902400A4369
:10482000AA719A790240114328009971FFF786FA1C
:10483000FBF7F4FF05B0F0BD072301341C40C8E7C7
:10484000521B0020101B00200F1B0020FFFF000048
:10485000121B0020F0B504008BB00100062206A850
:10486000FBF728FE2378A44D0593637808AE0493E4
:10487000A37806220093A388290030000193FBF758
:1048800019FEAB880293002B00D123E133889B4FA4
:10489000BB4200D1DDE0AB780393002B00D1D8E020
:1048A000019B0299AA795B1A9BB2C72B00D9ABE096
:1048B0000F2A00D970E0300006222900FBF7FAFD2C
:1048C0003388009EBB4211D022889A420ED1331EFB
:1048D0001BD1AA790F331A40013313432800AB715F
:1048E000FFF72CFAAB79A371002652E0059A08ABCA
:1048F0001A70049A5A70019A002A03D01B887F4AC2
:10490000934208D1009B002BEED001237A4A917983
:104910000B439371E8E7009B002BF6D1784A794B63
:1049200015781B78784AAB4212D10698FDF70EFB3A
:10493000C3B200040F21020F012A1BD8000E01424E
:1049400001D0002B25D02033DBB2072B21D915E075
:10495000D80011184F78BC46049FBC4506D1805C36
:10496000059FB84202D189780029BDD107210133C2
:104970000B40D8E70E320A40012A04D92000FFF785
:10498000DDF9039E05E0000E0142DCD0A2790F2A7A
:10499000D9D830000BB0F0BD062229003000FBF75B
:1049A00089FD3388BB4210D022889A420DD1009BEA
:1049B000002B0AD1AB792000A371FFF7BFF90822C1
:1049C00021002800FBF776FD1CE02000FDF7CEFA61
:1049D000002878D0009B002B75D0474A93791F2B75
:1049E00009D9128808A8028000228270019A837176
:1049F0008280FFF7A3F9082221003F48FBF75AFD08
:104A0000FFF7D4FE0126C4E70F2A08D82800FFF7D5
:104A100095F9082200212800FBF79EFD64E7062295
:104A200029003000FBF746FD3388BB42CDD02A88F1
:104A300023889A42C9D1009B002BC6D1AB792000B4
:104A4000A371FFF77BF9082228000099FBF784FD8A
:104A5000D8E7294F062239003000FBF72BFD3288BA
:104A6000264B9A4236D0B978002933D1019B02985F
:104A70001B1A9BB2C72B2AD8009B002B23D023885C
:104A8000934217D1BB79DA0710D40F2B0ED90F310F
:104A9000A3718B43F02B06D0A3791A0901321201BE
:104AA0000B401343A3712000FFF748F908222100AF
:104AB000380087E72000FDF759FA00289BD1012331
:104AC000BA791343BB712000FFF738F99AE708223F
:104AD0003800A1E7009B002BF5D02000FDF746FA37
:104AE0000028F0D0082221002800FBF7E3FC2888EA
:104AF000FDF72CFA84E7C046521B0020FFFF0000A0
:104B00000F1B0020101B0020121B0020F0B5030C0F
:104B10008DB00290D8B2039189B2002802D0002251
:104B20002E4B1A70162302AA9B1800221A80029B91
:104B300008AD069302AB98749982083206A9280042
:104B4000FBF7B8FC2800FFF785FE041E08D00725F8
:104B5000234C244B20781B78834233D10DB0F0BD19
:104B6000290008220AA8FBF7A5FC04AEAB880622A0
:104B70000AA930000193FBF79DFC1A4D184F0199CB
:104B80002B783A780029E2D0308817498842DED065
:104B900007215E1C0E40964209D1FDF7CDFA08228E
:104BA000210012482C703C70FBF7D6FCCFE7104870
:104BB000DB000822C0180AA9FBF77CFC2E70FBF76B
:104BC0002DFEC4E70A4BC000C018FFF743FE0028C3
:104BD000C4D0237801332B402370B9E70E1B00208B
:104BE000101B00200F1B0020FFFF0000521B0020A5
:104BF000121B002010B5EFF30983203383F30988DB
:104C0000FCF707F810BD000010B50F3018D0FBF707
:104C1000F5FFEFF30983203B83F3098880225204D8
:104C2000DA61D02212061168074A890052185268C8
:104C30001168D26889689268914202D9034A9A61E0
:104C400010BD034AFBE7C04614080020D70200103D
:104C5000DA020010D0230C2270461B0610B51A652C
:104C60000B3A196D114203D140BFFFF7CDFF10BDC4
:104C7000996DF6E7D0230C22704601211B0610B572
:104C80001A651A6D0A4203D140BFFFF7BDFF10BD80
:104C90009A6D0232F5D172B61A68034B92009B18D6
:104CA0005B68024A9A65FEE714080020B17700109D
:104CB000BFF35F8FD023BE221B0652009B5070476C
:104CC0000322F0B5FF26C0250240D200964089019C
:104CD00091400A4F83089B00DB19AD005C591F22ED
:104CE000B4430C435C51012302409340C02240096D
:104CF0008000C019520083500360F0BD00E100E065
:104D000070B5FBF77BFF1F4D1F4B402200211F4852
:104D10006B60FBF721FC2E78012E2ED180201C4ADF
:104D2000400413681B4C03431360FCF76BFA8022AA
:104D30000021D2012000FBF70FFC8022002152014C
:104D40001548FBF709FC092363670333A367FCF7E6
:104D500017FC80239B052664104AE364104B052052
:104D60001A608022196892020A431A600321FFF731
:104D7000A7FF80220B4B5202E25002232B70FBF75D
:104D800048FF70BDCC1900206C810010D81900209C
:104D900000C00040000011500000105010D0010071
:104DA000900011504C200000F022F8B52C4CD2009D
:104DB000E56977462E6CAB6B164211D0294A134039
:104DC000AB63E3681B69002B01D020009847FBF719
:104DD00015FF02212448FEF725FDFBF71AFFAB6BF8
:104DE0001022164210D09343AB63E3681B68002B7C
:104DF00001D020009847FBF701FF00211A48FEF779
:104E000011FDFBF706FFAB6B4022164210D0934317
:104E1000AB63E3685B68002B01D020009847FBF789
:104E2000EDFE01211048FEF7FDFCFBF7F2FEAB6B37
:104E3000202216420FD09343AB63E3689B68002B9C
:104E400001D020009847FBF7D9FE00210748FEF764
:104E5000E9FCFBF7DEFE3800FFF7D6FEF8BDC046E2
:104E6000DC0700207FF8FFFFEC070020F0070020A0
:104E7000012210B57446064B5A63FBF7BFFEFDF7DF
:104E800045FEFBF7C6FE2000FFF7BEFE10BDC04684
:104E900000400540022210B57446064B5A63FBF7EA
:104EA000ADFEFDF733FEFBF7B4FE2000FFF7ACFECE
:104EB00010BDC046004005400422074B10B55A63A0
:104EC000064B74469B68002B01D0022098472000B7
:104ED000FFF79AFE10BDC04600400540FC070020C9
:104EE0000822074B10B55A63064B7446DB68002B4B
:104EF00001D0032098472000FFF786FE10BDC04672
:104F000000400540FC0700207346F0B587B00593CC
:104F1000A04B1B680193DB0310D580229E4B9F4959
:104F200001249202CA5000219D48C3689A691475F1
:104F300051825A6994755B6891829847019BDB04A2
:104F400037D58022964C944B94491203CA502200C4
:104F5000002702232500DC3223701760A760EB686E
:104F6000002B14D0FBF74AFEEE687069002804D0CD
:104F700002210C304942FEF755FCB069002804D0EC
:104F800002210C304942FEF74DFCFBF742FE0026A1
:104F90000137EE600435102FE1D12300C4331E70B9
:104FA000FCF7EEFA63681B68B34202D031002000C0
:104FB0009847019B5B042ED51022774B7749784C9C
:104FC000CA502278774B1A700523237063681B68D8
:104FD000002B02D004212000984700250226A5605E
:104FE0007642E368002B12D0FBF708FEE768786989
:104FF000002803D031000C30FEF714FCB8690028FB
:1050000003D031000C30FEF70DFCFBF702FE01353A
:105010000434102DE5D1019B1B040ED580225E4B7C
:105020005E491201CA505F4B5D481B7803704368AC
:105030001B68002B01D005219847019B9B0307D5D6
:1050400057484368DB68002B00D09847534B9B6C54
:10505000019BDB0604D40598FFF7D6FD07B0F0BD31
:105060004E4B9B6D04930023039301330293049BE7
:10507000002BF0D0039B202BEDD0029B049A13420F
:1050800020D0494B454A0299D150039B5D08444BBF
:10509000AE1C0193019AB300D31801225F68039BF1
:1050A000134234D17C6923692268636092B29BB257
:1050B0009A420FD029000198FCF7A2FD049B029AA6
:1050C00093430493029B5B000293039B0133DBB287
:1050D0000393CCE70122AA40019B1B899343019AC9
:1050E0001381BB68002B02D0290010009847FBF702
:1050F00085FD019BB6009E197368002158690C302C
:10510000FEF790FBFBF785FD0023A382D6E7274A35
:10511000EB009B181E68BC69B605B60D3200A0688E
:10512000A169FBF7C7F9A3689B19A36063689B1982
:10513000636023689B1B2360238A013B9BB223820D
:10514000002B02D07B8AB3421FD901220023AA4040
:105150006382134CAE1C638993436381B300E318ED
:105160005B68DB68002B02D0290020009847B6005E
:10517000A419FBF743FD63689B69180059680C305C
:10518000FEF750FBFBF745FD98E729000198FCF777
:1051900065F893E79800115050300000000011505E
:1051A000CC190020AC1A00205830000084001050A8
:1051B0007047000070B5FBF721FDFBF7C5FF184EE7
:1051C0000500B468002C14D1036AB060F360066275
:1051D00023E0A360237D002B10D0062B15D123687C
:1051E0006268A069210013605A60FBF7B9FFA369E8
:1051F0009C68AB68A2689342EBD806E062682368BB
:10520000200013605A60FDF719FD30002900FBF7FC
:10521000A7FF0620AE61FDF785FEFBF7FAFC70BD27
:105220005002002070B5FBF78FFF0400FBF7E6FC8F
:10523000114BDA681868226298421AD0616A002A13
:105240000ED1A160026853601A60026A036298601E
:10525000DA60FDF7F3FCFEF7DFF8FBF7DAFC70BD70
:105260001568AA4203D0AD68A94200D22900D268CD
:10527000E5E700238360F0E750020020F0B500244A
:1052800089B004AD102200212800FBF765F9654EB6
:1052900037687B1C00D107E1FBF7B0FC01216248B5
:1052A000FB00D022B9401B1805201206516218607D
:1052B0005E4BBF00FF1840233B609161FBF7A9FCE8
:1052C0005B4B5F695B4B9F4200D8C1E038005A4995
:1052D000FBF7BAF9594A0300974200D898E0072231
:1052E000C008013813400F2800D991E0FBF774F88B
:1052F000880080007800700068006000580050004E
:10530000480040003800300028002000180010003D
:10531000C046C046C046C046C046C046C046C0465D
:10532000C046C046C046C046C046C046C046C0464D
:10533000C046C046C046C046C046C046C046C0463D
:10534000C046C046C046C046C046C046C046C0462D
:10535000C046C046C046C046C046C046C046C0461D
:10536000C046C046C046C046C046C046C046C0460D
:10537000C046C046C046C046C046C046C046C046FD
:10538000C046C046C046C046C046C046C046C046ED
:10539000C046C046C046C046C046C046C046C046DD
:1053A000C046C046C046C046C046C046C046C046CD
:1053B000C046C046C046C046C046C046C046C046BD
:1053C000C046C046C046C046C046C046C046C046AD
:1053D000C046C046C046C046C046C046C046C0469D
:1053E000C046C046C046C046C046C046C046C0468D
:1053F000C046C046C046C046C046C046C046C0467D
:10540000C046C046C046C046C046C046C046C0466C
:10541000581E07281CD8FAF769FF1A19181716150D
:105420001413C0462C8100100440014004C0014008
:10543000B4070020FF083D0000093D00FF50250291
:10544000C046C046C046C046C046C046C046C0462C
:10545000744B0C220093D0231B06012100279C468D
:10546000009B1B68019301980023013007D063461D
:1054700001985B68C34001200340013B0B401F4380
:10548000009B013A49000433D2B2BFB289B2009303
:10549000002AE5D13068431C01D0FBF7C3FB142080
:1054A000FBF748FE6300EF5201340436042C00D0B1
:1054B000EEE65D4E102229003000FBF7A1F85B4BB1
:1054C0005B4F00931B785B4C0193002823D0102284
:1054D00029003000FAF7EEFF01233B70FBF74AFD8D
:1054E000554B1860544B1D68FBF744FD401B0428C6
:1054F00014D9019B08225D00651931002800FBF7D3
:105500007FF8002804D0082231002800FAF7D2FFE3
:1055100000233B7002E03B78002BE3D1FEF7A6FBB3
:10552000002857D00822002102A8FBF715F8009B9D
:10553000424E1D7833786D00414F6519092B1DD8F7
:105540002800404A02A9FCF745F8002835D0280079
:105550003D4A02A9FCF73EF800282ED00023337004
:105560003A4B0822187802A940002018FBF748F8A7
:1055700001233B70002817D109B0F0BD344B1B88C4
:105580000093FBF7F7FC009BC01AFA2380B25B0084
:105590009842D5D23B78002BEED00822002102A8F9
:1055A000FAF7DAFF00233B70284B0822187802A98B
:1055B00040002018FAF77EFFDEE73378FF2B04D097
:1055C00001333370DBB2092BCAD9FBF7D3FC204B74
:1055D0001880DFE7009B1B785B00E418FFF7EAFD0B
:1055E0001C4B21001C00082218001B4DFAF762FF1B
:1055F0002000FCF713F82870FFF714FEFFF7DAFD20
:10560000164BEC681A68944209D01C60FEF72EFB1A
:10561000002804D1FBF7AEFC114B241A1C60FFF7E5
:1056200001FEA9E73C8100105019002061190020FB
:10563000E405002096190020E0050020E805002080
:10564000DE05002015200010B53C00106019002078
:10565000DC050020B2190020B0190020D805002078
:10566000A8190020F0B597B0FCF77AF80220FBF7F4
:10567000C9FD80200003FBF7C5FD8020C002FBF7B9
:10568000C1FD2020FBF7BEFD802000240125400045
:10569000FBF7B8FDCB4BCC4A1D711A60CB4A9C601E
:1056A000DA618023CA4ADB031168CA4E0B431360D8
:1056B00021007822C8483570FAF74EFFC74B746056
:1056C0005C601C609C60DC600623B460E236348061
:1056D000D026C34AC34FD3620933546014601461A7
:1056E00054619461D46194635363BF4BBF4AFC60BF
:1056F0003D70360635681A60BD4A7C605A60BC60F1
:10570000AB00BC4CFB185C60BB4BA562E362BB4BBF
:10571000EA009918D0584968FFF7D2FA0C2333658C
:10572000002D00D0DBE0C321C020B54A89005358CA
:1057300000061B021B0A0343535080231B02136005
:10574000B04B00262361636101235B42A361A44B3C
:10575000A660E661996A33000A00226263628033C0
:10576000A3636365A84BA94AA948E360A94B1060ED
:105770001A00A9480832D0671A00883216601A0049
:10578000A648943201211060D022A665E664266501
:105790002460646024640634E187120612680224DF
:1057A0009200BA1850681A00A03211601A00AC3288
:1057B00014801A00A83210601A00BC3211601A005E
:1057C0009748B832B43316601E60FDF737FA3C7064
:1057D000FBF71FFA934B944A1A60FCF779FC80227E
:1057E000924952009248FAF765FE8022914F3000AC
:1057F00039001201FBF75CFBB04200D17FE08E4C18
:105800008E4DBB5D0195634000931B0209930023FD
:105810000098019912220893002301F017FF009BC2
:105820006A01DB0E1A43009B03925B010293029C08
:10583000039D24184D41009A019BA4185D41009BD3
:10584000019A5B0ED2011A43009B0592DB0104937F
:10585000049A059BA4185D41009B019A1B0E12023D
:105860001A43009B07921B020693069A079BA418F3
:105870005D41089A099BA4185D41802301365B01B4
:105880009E42BED1042230000EA9FBF711FB0E9BF5
:10589000A34202D10F9BAB4201D0FCF719FC684D2B
:1058A0000CAB9C1D012221002800FBF701FB002806
:1058B0007BD02388002B77D00CAA1381DAB2AC1CE2
:1058C0009109012979D05B480090022900D1B9E003
:1058D000002919D0802302005B01D450C1E0012DC2
:1058E00000D02DE7C420FF22454B8000195891437A
:1058F0003F3A0A431A50802252021A6020E7FCF70E
:10590000E7FBFCF7E5FBB1E00A210CAB012220002C
:10591000C918FBF7CDFA002800D1CAE10CAB1E7AFA
:10592000E0233204DB021A4009230CA95B18197822
:105930005B78F6081B020B435BBA9BB21A43072342
:105940003340049313000292049A2C1D9B1880226A
:105950005201934201D9009BBFE706231E4208D0A3
:10596000012220000FA9FBF7A3FA002800D19EE135
:10597000AC1D76070AD50E210CAB01222000C918F8
:10598000FBF796FA002800D18DE102340B21029B2F
:10599000049AF8180CABC918FAF78CFD802325007F
:1059A0009B019C4200D27BE7012080235B01FD50DC
:1059B000002856D0FCF7C0FC55E03F211B0A0A40E6
:1059C000BB54EBE7DC070020AC8000100040034034
:1059D00000C00040CC190020181A0020FC0700204D
:1059E00000400540140800200C0800202020002062
:1059F00000000420C00C0420F8800010D4800010A7
:105A000000E100E0D00C0420F00C0420A40C0420E1
:105A1000740C0420000C0420590C0010C502001066
:105A2000980C042068020020F50B00100000001004
:105A30002C1800202408002025232284E49CF2CB8B
:105A400008100000F82051028001014080201B0A4C
:105A50005B000B43591C4001814200D21DE1009BB9
:105A60001C50FCF7EBFB002800D14AE71022002174
:105A7000BB48FAF771FD0022BA4BBB4C1A70BB4B06
:105A8000BB481A70069323009C3318602000B94B62
:105A9000B430036080331B6827009C462300250038
:105AA000EC33F0371B603B6023000126B248E03541
:105AB00028602000F4331E702300E43000602000D2
:105AC000F8331A6023006746D0300068FC33043096
:105AD000D86047436046A9491861E167E0310E701C
